:020000040800F2
:1000000000000120DD020008E3020008E50200080C
:10001000E7020008E9020008EB0200080000000007
:10002000000000000000000000000000ED020008D9
:10003000EF02000800000000F1020008F3020008CF
:10004000F5020008F5020008F5020008F5020008B4
:10005000F5020008F5020008F5020008F5020008A4
:10006000F5020008F5020008F5020008F502000894
:10007000F5020008F5020008F5020008F502000884
:10008000F5020008F5020008F5020008F502000874
:10009000F5020008F5020008F5020008F502000864
:1000A000F5020008F5020008F5020008F502000854
:1000B000F5020008F5020008F5020008F502000844
:1000C000F5020008F5020008F5020008F502000834
:1000D000F5020008F5020008F5020008F502000824
:1000E000F5020008F5020008F5020008F502000814
:1000F000F5020008F5020008F5020008F502000804
:10010000F5020008F5020008F5020008F5020008F3
:10011000F5020008F5020008F5020008F5020008E3
:10012000F5020008F5020008F5020008F5020008D3
:10013000F5020008F5020008F5020008F5020008C3
:10014000F5020008F5020008F5020008F5020008B3
:10015000F5020008F5020008F5020008F5020008A3
:10016000F5020008F5020008F5020008F502000893
:10017000F5020008F5020008F50200080000000082
:10018000F5020008F5020008F5020008F502000873
:10019000F5020008F5020008F5020008F502000863
:1001A000F5020008F5020008F502000800B583B06A
:1001B00001F0D0FA384B394A1360394A1360394993
:1001C00006E011681960043304329842F9D82146D8
:1001D000354B994205D20A684B6801F10C048868D6
:1001E000F3E72E4B1A68314B9A4200D0FEE72C4BB6
:1001F0001A682F4B9A42F9D1274B2E4A13602E4A88
:1002000013602E4B05E00020106004329342FAD8B0
:100210000B462B4A934204D2194651F8082B5B68CF
:10022000F4E7244B1B6813B9234B1B6803B1FEE7AB
:1002300001F05AFB694601A801F00CFA214B224C4F
:10024000E41AA4100025AC4214DC204B204CE41A24
:10025000A4100025AC4213DC0099019801F076FB54
:1002600005461C4B1C4CE41AA410002C0EDC28463E
:1002700001F0C3F9134B53F8253098470135E2E7F5
:10028000124B53F8253098470135E3E7013C114BF9
:1002900053F824309847E8E7BABADECA00000020D5
:1002A00084000020F8020008100300087856341279
:1002B0003254769888000020640100201003000862
:1002C0002003000820030008200300082003000882
:1002D00020030008200300082003000808B5FFF7EA
:1002E00065FFFEE7FEE7FEE7FEE7FEE7FEE7FEE767
:0602F000FEE77047FEE787
:1002F8002824000800000020880000202824000886
:100308000000001000000010880000206801002094
:080318000000001000000010BD
:100320007047000010B5044600F03EFE064BA3FBEC
:100330000030800900F08CF8002221464FF0FF3099
:1003400000F042F8002010BDD34D621008B50B4BF1
:100350001A6842F400721A601A6842F480621A60E5
:100360001A6842F480721A60032000F00FF80F2020
:10037000FFF7D8FFFFF7D4FF002008BD003C024084
:10038000014B1868704700BF8C00002010B5044670
:10039000C31E042B0FD80A4AD36823F4E0631B045E
:1003A0001B0C240204F4E064234343F0BF6343F4D2
:1003B0000033D36010BDA421024801F053F9EAE7ED
:1003C00000ED00E0A822000870B505460C46164670
:1003D0000F2A24D80F2C27D81A4BDB68C3F302232B
:1003E000C3F10702042A28BF0422191D062920D9B7
:1003F000033B012101FA02F2013A14409C4001FA48
:1004000003F3013B33401C43002D14DB2401E4B211
:1004100005F1604505F5614585F8004370BDBC21D7
:10042000094801F01FF9D5E7BD21074801F01AF985
:10043000D2E70023DDE705F00F052401E4B2034B0A
:100440005C5570BD00ED00E0A822000814ED00E04E
:100450000138B0F1807F0AD2064B5860F021064A7D
:1004600082F823100020986007221A60704701204C
:10047000704700BF10E000E000ED00E010B504465A
:10048000042800D038B9042C0BD0094A136823F093
:100490000403136010BD4FF4BA71064801F0E2F88E
:1004A000F1E7034A136843F00403136010BD00BF73
:1004B00010E000E0A82200082DE9F04780460F4632
:1004C0000B8853B37B68012B22D9112B20D0022B30
:1004D0001ED0122B1CD09D4A934219D002F58012D7
:1004E000934215D002F58012934211D0A2F5F81272
:1004F00093420DD002F58012934209D002F580128A
:10050000934205D0032B03D0C421914801F0AAF8EF
:10051000BB68022B06D800257CE0C3218C4801F083
:10052000A1F8CFE7C5218A4801F09CF8F3E73B69C1
:100530000BB3092B1FD0012B1DD0022B1BD0032B7B
:1005400019D0042B17D0052B15D0062B13D0072B51
:1005500011D0082B0FD00A2B0DD00B2B0BD00C2B4E
:1005600009D00D2B07D00F2B05D00E2B03D0D62191
:10057000774801F077F8E908083158F8213005F09C
:10058000070292000F20904023EA0003386900FA26
:1005900002F2134348F821304DE0E9216C4801F0A4
:1005A00061F864E0092100E00021A1400A43023320
:1005B000684941F82320684B1A686FEA090302EA88
:1005C0000301786810F4803F01D049EA0201624AD1
:1005D0001160526803EA0201786810F4003F01D00C
:1005E00049EA02015C4A5160926803EA02017868B4
:1005F00010F4801F01D049EA0201574A9160D26885
:100600001340796811F4001F01D049EA0203524AED
:10061000D36001350F2D00F297800124AC403B6878
:1006200004EA03094C45F4D17B68022B3FF47FAF09
:10063000122B3FF47CAFD8F800304FEA450A03266E
:1006400006FA0AF6F64333407A6802F0030202FA29
:100650000AF21343C8F800307B685A1E012A03D9F6
:10066000112B01D0122B16D1FB68032B95D8D8F88B
:1006700008303340FA6802FA0AF21343C8F8083027
:10068000D8F8043023EA04047B68C3F30013AB40BA
:100690001C43C8F80440D8F80C301E40BB6803FA6D
:1006A0000AF31E43C8F80C607B6813F0805FB0D07B
:1006B0002A4A536C43F480435364AB08991CA2F557
:1006C000803252F8212005F003018C000F21A14057
:1006D00022EA0102224880453FF466AF214988455D
:1006E00022D001F58061884520D001F580618845E0
:1006F0001ED001F5806188451CD001F580618845D8
:100700001AD001F58061884518D001F580618845CF
:1007100016D001F58061884514D001F580618845C7
:100720003FF440AF0A2140E701213EE702213CE7C8
:1007300003213AE7042138E7052136E7062134E7AB
:10074000072132E7082130E7BDE8F08700001110EB
:10075000DC22000800380140003C01400038024023
:10076000000002400004024038B5044603680F2B25
:100770002DD8236813F0010F65D06368012B06D9CB
:10078000052B04D04FF48171AC4800F06BFFAC4BEB
:100790009B6803F00C03042B23D0A94B9B6803F048
:1007A0000C03082B18D00022A64B1A70FFF7E8FDA7
:1007B0000546A34B1B6813F4003F1CD0FFF7E0FD78
:1007C000401B41F288339842F3D9032038BDFD2104
:1007D0009A4800F047FFCCE7994B5B6813F4800F11
:1007E000E1D0974B1B6813F4003F2CD06368012BBA
:1007F00029D0012038BD2279924B1A706368012BF1
:1008000010D0FFF7BDFD05468D4B1B6813F4003F6C
:1008100019D0FFF7B5FD401B41F288339842F3D958
:10082000032038BDFFF7ACFD0546854B1B6813F46C
:10083000003F08D1FFF7A4FD401B41F288339842E6
:10084000F3D9032038BD236813F0020F4ED0E368BC
:10085000012B04D94FF4A171784800F003FF2369FC
:100860001F2B1FD8764B9B6813F00C0F25D0744BB1
:100870009B6803F00C03082B1AD0E368002B66D0AA
:100880000122714B1A60FFF77BFD05466C4B1B681C
:1008900013F0020F4BD1FFF773FD401B6428F5D90D
:1008A000032038BD40F24311644800F0DBFED9E775
:1008B000634B5B6813F4800FDFD1614B1B6813F04F
:1008C000020F04D0E368012B01D0012038BD5C4841
:1008D000026822F0F8022169F82393FAA3F3B3FA2D
:1008E00083F3DBB201FA03F313430360236813F0CD
:1008F000080F50D06369012B04D94FF4C1714F48E0
:1009000000F0B0FE6369002B33D001224F4B1A6018
:10091000FFF736FD05464A4B5B6F13F0020F3AD1E5
:10092000FFF72EFD401B6428F5D9032038BD44484D
:10093000026822F0F8022169F82393FAA3F3B3FACC
:1009400083F3DBB201FA03F313430360CEE7002223
:100950003D4B1A60FFF714FD0546394B1B6813F039
:10096000020FC3D0FFF70CFD401B6428F5D903200C
:1009700038BD0022354B1A60FFF702FD0546304BAB
:100980005B6F13F0020F06D0FFF7FAFC401B6428E0
:10099000F5D9032038BD236813F0040F6DD0A36888
:1009A000012B06D9052B04D04FF4D671234800F053
:1009B00059FE234A136C43F080531364A2F5E432CA
:1009C000136843F480731360FFF7DAFC0546204B8D
:1009D0001B6813F4807F06D1FFF7D2FC401B64280C
:1009E000F5D9032038BD00221A4B1A70FFF7C8FC56
:1009F0000546134B1B6F13F0020F08D0FFF7C0FC26
:100A0000401B41F288339842F3D9032038BD227A43
:100A1000104B1A70A368012B1ED0FFF7B1FC0546DE
:100A2000074B1B6F13F0020F27D0FFF7A9FC401BE9
:100A300041F288339842F3D9032038BD1C230008C3
:100A4000003802400238024000004742800E474210
:100A50000070004070380240FFF792FC0546604B82
:100A60001B6F13F0020F08D1FFF78AFC401B41F205
:100A700088339842F3D9032038BDA369022B1FD8CD
:100A8000A369002B00F0A880554A926802F00C027E
:100A9000082A00F0A380022B18D00022514B1A60C4
:100AA000FFF76EFC04464E4B1B6813F0007F00F00E
:100AB0009180FFF765FC001B6428F4D9032038BD42
:100AC0004FF4F871484800F0CDFDD9E7E3693BB138
:100AD000B3F5800F04D040F2F911434800F0C2FD95
:100AE000236A3F2B27D8636AC03BF02B29D8A36A1F
:100AF000022B0AD0042B08D0062B06D0082B04D0DA
:100B00004FF4FE71384800F0ADFDE36A043B0B2B57
:100B10001DD80022334B1A60FFF732FC0546304BDC
:100B20001B6813F0007F18D0FFF72AFC401B6428D5
:100B3000F5D9032038BD4FF4FD712B4800F092FD2C
:100B4000D1E740F2FB11284800F08CFDCFE740F2DE
:100B5000FD11254800F086FDDBE7236A616A47F650
:100B6000C07292FAA2F2B2FA82F2D2B201FA02F2A0
:100B70001343A26A5208013A4FF4403191FAA1F1AD
:100B8000B1FA81F1C9B28A401343E2691343E16AC1
:100B90004FF0706292FAA2F2B2FA82F2D2B201FA85
:100BA00002F2134343F000530D4A536001220D4BF0
:100BB0001A60FFF7E5FB0446094B1B6813F0007F42
:100BC00006D1FFF7DDFB001B6428F5D9032038BDF3
:100BD000002038BD002038BD002038BD012038BDC0
:100BE00000380240600047421C23000870B50446EC
:100BF0000D460368013B0E2B12D80F2D16D8974BCC
:100C00001B6803F00F039D4240F29C80EAB2934BB5
:100C10001A701B6803F00F039D420DD0012070BDB8
:100C20004FF418718E4800F01DFDE6E740F2612197
:100C30008B4800F017FDE2E7236813F0020F1DD088
:100C4000A368A3B1802B12D0902B10D0A02B0ED074
:100C5000B02B0CD0C02B0AD0D02B08D0E02B06D064
:100C6000F02B04D040F277217D4800F0FBFC7D4A58
:100C7000936823F0F003A1680B439360236813F09B
:100C8000010F00F0F1806368022B27D86368012B05
:100C90002AD0022B2FD0734A126812F0020F00F0F4
:100CA000258170498A6822F0030213438B60FFF7A5
:100CB00067FB05466368012B24D0022B32D0694BB9
:100CC0009B6813F00C0F00F0CF80FFF759FB401B1F
:100CD00041F288339842F2D9032070BD40F27E2160
:100CE0005F4800F0BFFCD1E75E4A126812F4003F93
:100CF000D7D1012070BD5B4A126812F0007FD0D1BD
:100D0000012070BD574B9B6803F00C03042B00F0CF
:100D1000AB80FFF735FB401B41F288339842F1D995
:100D2000032070BD4F4B9B6803F00C03082B00F0B1
:100D30009B80FFF725FB401B41F288339842F1D995
:100D4000032070BD236813F0020F1DD0A368A3B168
:100D5000802B12D0902B10D0A02B0ED0B02B0CD00B
:100D6000C02B0AD0D02B08D0E02B06D0F02B04D01B
:100D700040F2C6213A4800F075FC3A4A936823F0E5
:100D8000F003A1680B439360236813F0010F5BD05D
:100D90006368022B26D86368012B29D0022B2ED042
:100DA000304A126812F0020F00F0A2802D498A68C2
:100DB00022F0030213438B60FFF7E2FA06466368F2
:100DC000012B23D0022B30D0264B9B6813F00C0F45
:100DD0003AD0FFF7D5FA801B41F288339842F3D915
:100DE000032070BD40F2CD211D4800F03BFCD2E74E
:100DF0001C4A126812F4003FD8D1012070BD194A74
:100E0000126812F0007FD1D1012070BD154B9B6894
:100E100003F00C03042B17D0FFF7B2FA801B41F24A
:100E200088339842F2D9032070BD0E4B9B6803F0C3
:100E30000C03082B08D0FFF7A3FA801B41F288337C
:100E40009842F2D9032070BDEAB2044B1A701B68B5
:100E500003F00F039D4207D0012070BD003C02400B
:100E60001C23000800380240236813F0040F19D037
:100E7000E36883B1B3F5805F0DD0B3F5A05F0AD00E
:100E8000B3F5C05F07D0B3F5E05F04D040F21D3189
:100E9000184800F0E7FB184A936823F4E053E16830
:100EA0000B439360236813F0080F1AD0236983B1B2
:100EB000B3F5805F0DD0B3F5A05F0AD0B3F5C05F86
:100EC00007D0B3F5E05F04D04FF44971094800F052
:100ED000C9FB094A936823F46043216943EAC103CB
:100EE00093600F20FFF71EFA002070BD012070BD37
:100EF000012070BD1C23000800380240274B9B686E
:100F000003F00C03042B46D0082B01D02448704773
:100F1000224B586800F03F005A6802F480024FF4F8
:100F2000800393FAA3F3B3FA83F3DBB232FA03F349
:100F300020D01C4AB2FBF0F2184B586847F6C07339
:100F4000184093FAA3F3B3FA83F3DBB2D84000FB63
:100F500002F0124B5B6803F440334FF4403292FAD4
:100F6000A2F2B2FA82F2D2B2D34001335B00B0FBFC
:100F7000F3F070470A4AB2FBF0F2084B586847F6A4
:100F8000C073184093FAA3F3B3FA83F3DBB2D840EB
:100F900000FB02F0DDE70348704700BF0038024065
:100FA0000024F40000127A0008B5FFF7A7FF094BF0
:100FB0009A6802F0F002F02393FAA3F3B3FA83F3F2
:100FC000DBB222FA03F3044AD35CD840034B186027
:100FD00008BD00BF003802400C2300081C000020A0
:100FE00008B5FFF7E1FF084B9A6802F4E0524FF4AE
:100FF000E05393FAA3F3B3FA83F3DBB222FA03F3D9
:10100000024AD35CD84008BD003802400C230008D7
:1010100008B5FFF7C9FF084B9A6802F460424FF425
:10102000604393FAA3F3B3FA83F3DBB222FA03F338
:10103000024AD35CD84008BD003802400C230008A7
:101040002DE9F04104460368C14A934220D0A2F53D
:101050004C4293421CD002F58062934218D002F5B4
:101060008062934214D002F58062934210D002F560
:10107000444293420CD0A2F51C42934208D002F5A0
:101080008062934204D040F22A71B24800F0EAFA3A
:101090006268B14B9A4200F2B180A3683BB1B3F5EC
:1010A000805F04D040F22C71AA4800F0DBFAE368BC
:1010B0003BB1B3F5005F04D040F22D71A54800F0BC
:1010C000D1FA236953B1B3F5806F07D0B3F5C06F80
:1010D00004D040F22E719F4800F0C4FA63694FF6C5
:1010E000F372134200D123B940F22F71994800F0F6
:1010F000B9FAA3696BB1B3F5807F0AD0B3F5007F6D
:1011000007D0B3F5407F04D04FF4E661914800F07A
:10111000A9FAA369A3B123688D4A934210D0A2F51E
:101120004C4293420CD002F58062934208D002F503
:101130004C42934204D040F23571864800F092FA56
:101140002268136923F44053E1680B43136121685B
:10115000CB6823F4164323F00C03A26820690243F2
:1011600060690243E06902431343CB60226853691C
:1011700023F44073A1690B435361E369B3F5004F56
:1011800042D02668724B9E4200F0AF8003F5806328
:101190009E4200F0AA80FFF723FF00EB800000EBE7
:1011A00080006568AD00B0FBF5F56C4FA7FB053519
:1011B0006D092D01FFF714FF00EB800000EB8000AC
:1011C00063689B00B0FBF3F8FFF70AFF00EB8000B9
:1011D00000EB800063689B00B0FBF3F3A7FB0323E5
:1011E0005B09642000FB13831B013233A7FB03233D
:1011F000C3F343132B43B360BDE8F08140F22B717E
:10120000544800F02FFA48E7266803F1804303F5BD
:1012100010439E4236D003F580639E4232D0FFF7E2
:10122000DFFE00EB800000EB800065686D00B0FB26
:10123000F5F54A4FA7FB05356D092D01FFF7D0FEE7
:1012400000EB800000EB800063685B00B0FBF3F80C
:10125000FFF7C6FE00EB800000EB800063685B00D8
:10126000B0FBF3F3A7FB03235B09642202FB1383A8
:101270001B013233A7FB0323C3F343132B43B36098
:10128000BDE8F081FFF7C4FE00EB800000EB8000BA
:1012900065686D00B0FBF5F5304FA7FB05356D09AE
:1012A0002D01FFF7B5FE00EB800000EB80006368C6
:1012B0005B00B0FBF3F8FFF7ABFE00EB800000EB48
:1012C000800063685B00B0FBF3F3A7FB03235B09BB
:1012D000642202FB13831B013233A7FB0323C3F3F6
:1012E00043132B43B360BDE8F081FFF791FE00EBA1
:1012F000800000EB80006568AD00B0FBF5F5174F8E
:10130000A7FB05356D092D01FFF782FE00EB80007C
:1013100000EB800063689B00B0FBF3F8FFF778FEFA
:1013200000EB800000EB800063689B00B0FBF3F3F0
:10133000A7FB03235B09642202FB13831B013233E7
:10134000A7FB0323C3F343132B43B360BDE8F08132
:10135000001001404C230008A037A0001F85EB516E
:101360002DE9F04105460E4690461C46FFF708F869
:101370000746B8F1000F2AD02B681B6836EA030332
:1013800053D1B4F1FF3FF7D024B1FEF7F9FFC01BF2
:101390008442F1D22A68D36823F08003D3602A689C
:1013A000D36823F02003D3602A68D36823F48073C2
:1013B000D3602A68536923F001035361012385F840
:1013C0003930002385F838300320BDE8F0812B68E0
:1013D0001B6836EA030325D0B4F1FF3FF7D024B1F0
:1013E000FEF7CEFFC01B8442F1D22A68D36823F0F7
:1013F0008003D3602A68D36823F02003D3602A686F
:10140000D36823F48073D3602A68536923F00103FF
:101410005361012385F83930002385F838300320E3
:10142000BDE8F0810020BDE8F0810020BDE8F0813A
:10143000002866D010B504468369002B38D00368B5
:10144000314A93420FD0A2F54C4293420BD002F5A1
:101450008062934207D002F54C42934203D0F221BE
:101460002A4800F0FFF894F83930002B45D00223C9
:1014700084F839302268D36823F40053D3602046BF
:10148000FFF7DEFD2268136923F49043136122689D
:10149000536923F02A0353612268D36843F400534D
:1014A000D360002084F83A00012384F8393010BD5D
:1014B0000368154A9342D6D0A2F54C429342D2D04B
:1014C00002F580629342CED002F580629342CAD088
:1014D00002F580629342C6D002F544429342C2D0E4
:1014E000A2F51C429342BED002F580629342BAD06C
:1014F000F721064800F0B6F8B5E7204600F000FAFC
:10150000B5E70120704700BF001001404C230008E0
:1015100070B504460D461E4690F83930DBB2012BFB
:1015200004D0222B02D00223184670BD002D5AD0C1
:10153000002A5AD094F83830012B58D0012384F86F
:101540003830002384F83A3094F83930DBB2222B5B
:1015500005D0122384F83930A284E28413E03223C8
:1015600084F83930F8E73346002280212046FFF71F
:10157000F7FE00283DD122682B88C3F3080353608F
:101580002369A3B90235E38C9BB1013BE384A368D3
:10159000B3F5805FE7D03346002280212046FFF775
:1015A000DFFE40BB23682A785A600135EBE701353E
:1015B000E9E73346002240212046FFF7D1FE0346EB
:1015C00008B10323B0E794F83920D2B2322A06D00A
:1015D000012284F83920002284F83820A4E722224E
:1015E00084F83920F7E701239EE701239CE70223D3
:1015F0009AE7032398E7032396E7FEE708B5034835
:1016000000F052F80120FFF7F8FF00BF7C2300082C
:1016100008B503460C4A12685AB10B4A10680333E6
:1016200023F003030344094A934206D8064A136091
:1016300008BD0749044A1160EFE700F09DF90C234B
:1016400003604FF0FF3008BD9000002000FC002038
:101650006801002001230360014B0B60704700BF4D
:101660000400002008B50A460146024800F004F8CC
:10167000FFF7C4FF902300080FB400B583B004AB9C
:1016800053F8042B01938021064800F0AFF900289D
:1016900003DD0146034800F059F803B05DF804EBA0
:1016A00004B070479800002010B5044600F06AF9B5
:1016B0000146204600F04AF80121024800F046F8B1
:1016C00010BD00BFBC230008F0B585B00C461C4B14
:1016D0001B6813F0010F27D005461A4B1B6883B90E
:1016E000194B0193042302930323039301AF0126B3
:1016F00030463946ABBE0646B6F1FF3F16D0114B19
:101700001E60104B1B6801930295039401AE0525E2
:1017100028463146ABBE0546B5F1FF3F09D0AC4285
:101720000AD0601B05B0F0BD0846FBE74FF0FF3064
:10173000F8E74FF0FF30F5E74FF0FF30F2E700BF7A
:10174000F0ED00E018010020C023000808B5FFF705
:10175000BBFF08BD08B500F001F808BD0C4B1A68C6
:1017600042F001021A60002199601A6822F0847226
:1017700022F480321A60074A5A601A6822F48022E2
:101780001A60D9604FF00062034B9A60704700BF47
:10179000003802401030002400ED00E0224B9B682E
:1017A00003F00C03042B15D0082B17D01BB11F4AD4
:1017B0001F4B1A6002E01D4A1D4B1A601A4B9B68B2
:1017C000C3F303131B4AD35CDAB219490B68D34045
:1017D0000B607047184A164B1A60EFE7124B5A68B5
:1017E0005B6803F03F0312F4800F13D0124AB2FB80
:1017F000F3F20D4B5B68C3F3881303FB02F30A4A51
:101800005268C2F3014201325200B3FBF2F3084ABC
:101810001360D3E7054AB2FBF3F2034B5B68C3F3F3
:10182000881303FB02F3EAE7003802400024F400C7
:101830001C0000200C00002000127A0008B50848A7
:10184000084B03604FF49643436000238360C360FA
:1018500003610C2242618361FFF7EAFD08BD00BF0E
:10186000280100200044004010B592B01C4A136CBF
:1018700043F080531364A2F5E432136843F4404309
:1018800013600123069307934FF480030D930823FD
:101890000E934FF4A8730F9302241094072311930F
:1018A0000C9406A8FEF760FF0F2301930294002317
:1018B00003934FF4A05304934FF4805305930521F1
:1018C00001A8FFF793F9FFF76FFB064BA3FB00306E
:1018D0008009FEF7BDFD0420FEF7D0FD12B010BD5B
:1018E00000380240D34D621008B5FFF737FFFEF70E
:1018F0002DFDFFF7B9FFFFF751FFFFF79FFF08BD71
:101900000268104B9A4200D0704700B587B003F5CB
:10191000FA331A6B42F008021A631A6C42F400326E
:101920001A64602301930223029300230393049318
:101930000723059301A90448FEF7BEFD07B05DF833
:1019400004FB00BF00440040000C024010B50748F3
:10195000FFF7AAFE064C204600F014F84FF6FF737E
:1019600082B221460348FFF7D3FDF0E7C423000805
:10197000D423000828010020014B1868704700BFDD
:1019800020000020034613F8012B002AFBD1181A6F
:101990000138704730B5141E05469BB0184605DA6D
:1019A0008B232B604FF0FF301BB030BD4FF4027320
:1019B000ADF80C3014BF04F1FF33234602930593B6
:1019C0004FF6FF7300910491ADF80E3002461E9B56
:1019D0006946284600F074F8431CBCBF8B232B607B
:1019E000002CE1D0009B00221A70DDE707B50093C0
:1019F00013460A46014603480068FFF7CBFF03B0D1
:101A00005DF804FB200000202DE9F0478E689E421F
:101A100082460C469146984635D88A8912F4906FD2
:101A200031D0256809696F1A6569022305EB450500
:101A300095FBF3F508F101033B449D4238BF1D4679
:101A4000530531D5294600F08FFB064650B90C23CB
:101A5000CAF80030A38943F04003A3814FF0FF3060
:101A6000BDE8F0873A46216900F00AFBA38923F418
:101A7000906343F08003A381266165613E44ED1BC2
:101A80002660A5604646464528BF4646324649463A
:101A9000206800F000FBA3689B1BA36023681E4422
:101AA00026600020BDE8F0872A4600F0BBFB064612
:101AB0000028E1D12169504600F008FBC7E700008B
:101AC0002DE9F04F9DB0804603938B891C060D468F
:101AD00016460FD50B696BB9402100F045FB286015
:101AE000286128B90C23C8F800304FF0FF30C5E05A
:101AF00040236B610023099320238DF82930302384
:101B00008DF82A304FF0010B37463C4614F8013B64
:101B1000002B3CD1B7EB060A0BD053463246294680
:101B20004046FFF771FF013000F0A380099B53444A
:101B300009933B78002B00F09C8000234FF0FF328C
:101B400004930793059206938DF853301A93052258
:101B50002178504800F044FA671C049BD8B9D90694
:101B600044BF20228DF853201A0744BF2B228DF842
:101B7000532022782A2A16D0079A00210A202746C5
:101B800001343B78303B092B51D9C9B111E0252BE9
:101B9000C0D02746B9E73F4A801A0BFA00F0184335
:101BA00004903C46D3E7039A111D12680391002A62
:101BB00001DB079204E0524243F0020307920493D0
:101BC0003B782E2B0ED17B782A2B07F1010132D1E5
:101BD000039B1A1D1B680392002BB8BF4FF0FF3305
:101BE000023705932C4C39780322204600F0F8F98F
:101BF00038B14023001B03FA00F0049B0343049315
:101C00000137397825488DF8281006227E1C00F00F
:101C1000E7F9002835D0224BFBB9039B073323F0AB
:101C2000070308330393099B4B4409936CE700FBBC
:101C300002320121A3E70023059318460A240F4628
:101C400001313A78303A092A03D9002BCAD00590DD
:101C5000C8E704FB00200123F1E703AB00932A4609
:101C6000104B04A94046AFF30080B0F1FF3F81461E
:101C7000D9D1AB895B063FF538AF09981DB0BDE8F7
:101C8000F08F03AB00932A46064B04A9404600F0B0
:101C900081F8EAE7F4230008FA230008FE2300088D
:101CA00000000000091A00082DE9F04791461F4680
:101CB0008A680B69DDF820809342B8BF1346C9F8E3
:101CC000003091F8432006460C4612B10133C9F8A2
:101CD00000302368990642BFD9F800300233C9F8B2
:101CE0000030256815F0060507D104F1190AE368EC
:101CF000D9F800209B1A9D4229DB94F843302268D2
:101D0000003318BF012392062ED404F14302394652
:101D10003046C047013021D02368E568D9F800205B
:101D200003F00603042B08BFAD1AA36822690CBF99
:101D300025EAE57500259342C4BF9B1AED184FF0C4
:101D400000091A344D451BD10020BDE8F08701235E
:101D5000524639463046C047013003D14FF0FF307C
:101D6000BDE8F0870135C2E7E1185A1C302081F840
:101D70004300224494F8451082F843100233C4E72C
:101D80000123224639463046C0470130E6D009F1EA
:101D90000109D7E72DE9F04317460A7E85B06E2A80
:101DA000984606460C460C9B01F1430E00F0BC80A1
:101DB0001AD8632A2ED00AD8002A00F0C880582AE0
:101DC00000F08A8004F1420584F842202AE0642A67
:101DD00001D0692AF6D121681A6811F0800F23D04A
:101DE000111D1960136827E0732A00F0B48008D829
:101DF0006F2A2AD0702AE5D10A6842F020020A60D0
:101E000003E0752A21D0782ADCD1782284F8452095
:101E10006E4964E01A6801F14205111D19601368EA
:101E200084F842300123A3E011F0400F02F10401D5
:101E30001960D7D0B2F90030002B03DA2D225B42B3
:101E400084F8432062490A2217E02068196810F0DC
:101E5000800F03D0081D18600B6806E010F0400FDB
:101E600001F104001860F7D00B8859496F2A14BF9C
:101E70000A220822002084F843006568A560002D2E
:101E8000C0F29C80206820F004002060002B3FD12D
:101E9000002D40F095807546082A0BD12368DA079B
:101EA00008D5236962689A42DEBF302305F8013CF9
:101EB00005F1FF35AEEB05032361CDF800803B460D
:101EC00003AA21463046FFF7EFFE013055D14FF00F
:101ED000FF3005B0BDE8F08381F845203C49226819
:101EE000186812F0800F00F104051D6001D003682E
:101EF00002E05506FBD50388D00744BF42F020021C
:101F000022601BB9226822F0200222601022B1E771
:101F10007546B3FBF2F002FB1033CB5C05F8013DD4
:101F200003460028F5D1B7E708681A68496910F038
:101F3000800F04D0101D18601368196007E010F0BE
:101F4000400F02F1040018601368F6D019800023D6
:101F500023617546B1E71A68111D1960156862683A
:101F60000021284600F03CF808B1401B606063681F
:101F70002361002384F843309FE723692A463946CA
:101F80003046C0470130A2D023689B0707D5002503
:101F900004F11909E368039A9B1A9D4205DBE06886
:101FA000039B9842B8BF184693E701234A46394637
:101FB0003046C04701308AD00135EBE7002BA7D16E
:101FC0000B7884F8423004F1420565E716240008D6
:101FD00005240008000000000000000000000000D0
:101FE00001F0FF01102A2BDB10F0070F08D010F8CA
:101FF000013B013A8B422DD010F0070F42B3F6D1CE
:10200000F0B441EA012141EA014122F007047FF0E6
:1020100000070023F0E80256083C85EA010586EA3D
:10202000010685FA47F5A3FA87F586FA47F6A5FA79
:1020300087F68EB9EED1F0BC01F0FF0102F0070285
:1020400032B110F8013B013A83EA010313B1F8D130
:102050000020704701387047002D06BF3546033811
:10206000073815F0010F07D1013015F4807F02BF4A
:10207000013015F4C03F0130F0BC0138704700BF9B
:1020800010B5431E0A44914200D110BD11F8014B16
:1020900003F8014FF7E7884210B501EB020303D8BC
:1020A000421E99420CD110BD9842F9D28118D21A21
:1020B000D34200D110BD13F8014D01F8014DF7E7EF
:1020C00011F8014B02F8014FEBE7000038B5054667
:1020D000002945D051F8043C0C1F002BB8BFE41870
:1020E00000F0D6F81F4A1368104633B963601460D5
:1020F0002846BDE8384000F0CCB8A3420CD921688E
:102100006218934204BF1A685B68636004BF521888
:1021100022600460ECE713465A680AB1A242FAD979
:1021200019685818A0420BD12068014458188242FF
:102130001960DDD1106852685A6001441960D7E710
:1021400002D90C232B60D3E7206821188A4204BFF0
:1021500011685268626004BF091821605C60C7E7BB
:1021600038BD00BF1C01002070B5CD1C25F0030553
:1021700008350C2D38BF0C25002D064601DBA94281
:1021800003D90C233360002070BD00F081F8234A8E
:102190001468214691B9224C23681BB9304600F0DF
:1021A00067F820602946304600F062F8431C26D1CB
:1021B0000C233360304600F06CF8E4E70B685B1BDF
:1021C0001AD40B2B0FD90B60CD50CC18304600F031
:1021D00060F804F10B00231D20F00700C31A1BD088
:1021E0005A42E25070BD8C420DBF63684B68636019
:1021F000136018BF0C46E9E70C464968CAE7C41CDF
:1022000024F00304A04205D0211A304600F030F833
:102210000130CDD02560D9E770BD00BF1C01002082
:1022200020010020F8B5074614460E4621B9114694
:10223000BDE8F840FFF798BF22B9FFF747FF2546F2
:102240002846F8BD00F026F884420FD921463846CA
:10225000FFF78AFF05460028F2D031462246FFF7F5
:102260000FFF31463846FFF731FFE9E73546E7E72C
:1022700038B5064C0023054608462360FFF7C8F929
:10228000431C02D1236803B12B6038BD2401002018
:102290007047704751F8040C0028A0F10400BCBF3F
:1022A0000B58C018704700002E2E2F737973746579
:1022B0006D2F7372632F73746D333266342D6861C2
:1022C0006C2F73746D3332663478785F68616C5F3D
:1022D000636F727465782E63000000002E2E2F73DA
:1022E000797374656D2F7372632F73746D333266F7
:1022F000342D68616C2F73746D3332663478785F77
:1023000068616C5F6770696F2E63000000000000F9
:102310000102030401020304060708092E2E2F738D
:10232000797374656D2F7372632F73746D333266B6
:10233000342D68616C2F73746D3332663478785F36
:1023400068616C5F7263632E630000002E2E2F7332
:10235000797374656D2F7372632F73746D33326686
:10236000342D68616C2F73746D3332663478785F06
:1023700068616C5F756172742E63000061626F72D8
:102380007428292C2065786974696E672E2E2E00BA
:102390006173736572745F706172616D2829206664
:1023A00061696C65643A2066696C65202225732238
:1023B0002C206C696E652025640A00000A0000006C
:1023C0003A74740055415254207472616E736D6991
:1023D0007400000048656C6C6F20576F726C64214C
:1023E000213131316A6564656E61736369650D0A17
:1023F00000000000232D302B2000686C4C00656627
:102400006745464700303132333435363738394145
:10241000424344454600303132333435363738395B
:072420006162636465660060
:1024280078563412940000200000000000000000DC
:102438000000000001020304060708090024F40054
:102448002400002000000000000000000000000040
:102458000000000000000000000000000000000074
:102468000000000000000000000000000000000064
:102478000000000000000000000000000000000054
:102488000000000000000000000000000000000044
:102498000000000000000000000000000000000034
:0824A800000000003254769898
:04000005080001AD41
:00000001FF
